{
  "contractName": "LegacyFactory",
  "abi": [
    {
      "anonymous": false,
      "inputs": [
        {
          "indexed": false,
          "internalType": "address",
          "name": "legacy",
          "type": "address"
        },
        {
          "indexed": false,
          "internalType": "address",
          "name": "owner",
          "type": "address"
        }
      ],
      "name": "NewLegacy",
      "type": "event"
    },
    {
      "inputs": [
        {
          "internalType": "address",
          "name": "",
          "type": "address"
        },
        {
          "internalType": "uint256",
          "name": "",
          "type": "uint256"
        }
      ],
      "name": "legacies",
      "outputs": [
        {
          "internalType": "address",
          "name": "",
          "type": "address"
        }
      ],
      "stateMutability": "view",
      "type": "function"
    },
    {
      "inputs": [
        {
          "internalType": "address",
          "name": "_owner",
          "type": "address"
        }
      ],
      "name": "getLegacy",
      "outputs": [
        {
          "internalType": "address[]",
          "name": "",
          "type": "address[]"
        }
      ],
      "stateMutability": "view",
      "type": "function"
    },
    {
      "inputs": [
        {
          "internalType": "string",
          "name": "_name",
          "type": "string"
        },
        {
          "internalType": "address",
          "name": "_owner",
          "type": "address"
        },
        {
          "internalType": "uint256",
          "name": "_lockingTime",
          "type": "uint256"
        },
        {
          "internalType": "address",
          "name": "_heir",
          "type": "address"
        }
      ],
      "name": "newLegacy",
      "outputs": [],
      "stateMutability": "nonpayable",
      "type": "function"
    }
  ],
  "bytecode": "0x608060405234801561001057600080fd5b50611d47806100206000396000f3fe60806040523480156200001157600080fd5b5060043610620000465760003560e01c8063779efb90146200004b57806394453f04146200006b578063cfc3ebe714620000a1575b600080fd5b62000069600480360381019062000063919062000433565b620000d7565b005b620000896004803603810190620000839190620003c6565b620001fb565b604051620000989190620005fa565b60405180910390f35b620000bf6004803603810190620000b99190620003f2565b620002c9565b604051620000ce9190620005b0565b60405180910390f35b600084848484604051620000eb9062000318565b620000fa94939291906200061e565b604051809103906000f08015801562000117573d6000803e3d6000fd5b5090506000808573ffffffffffffffffffffffffffffffffffffffff1673ffffffffffffffffffffffffffffffffffffffff168152602001908152602001600020819080600181540180825580915050600190039060005260206000200160009091909190916101000a81548173ffffffffffffffffffffffffffffffffffffffff021916908373ffffffffffffffffffffffffffffffffffffffff1602179055507f3d4a16659a92c0996193d1a674ab691b480a2eba7a4541cdcca42f0b7b103f558185604051620001ec929190620005cd565b60405180910390a15050505050565b60606000808373ffffffffffffffffffffffffffffffffffffffff1673ffffffffffffffffffffffffffffffffffffffff168152602001908152602001600020805480602002602001604051908101604052809291908181526020018280548015620002bd57602002820191906000526020600020905b8160009054906101000a900473ffffffffffffffffffffffffffffffffffffffff1673ffffffffffffffffffffffffffffffffffffffff168152602001906001019080831162000272575b50505050509050919050565b60006020528160005260406000208181548110620002e657600080fd5b906000526020600020016000915091509054906101000a900473ffffffffffffffffffffffffffffffffffffffff1681565b6114be806200085483390190565b60006200033d62000337846200069b565b62000672565b9050828152602081018484840111156200035657600080fd5b6200036384828562000764565b509392505050565b6000813590506200037c816200081f565b92915050565b600082601f8301126200039457600080fd5b8135620003a684826020860162000326565b91505092915050565b600081359050620003c08162000839565b92915050565b600060208284031215620003d957600080fd5b6000620003e9848285016200036b565b91505092915050565b600080604083850312156200040657600080fd5b600062000416858286016200036b565b92505060206200042985828601620003af565b9150509250929050565b600080600080608085870312156200044a57600080fd5b600085013567ffffffffffffffff8111156200046557600080fd5b620004738782880162000382565b945050602062000486878288016200036b565b93505060406200049987828801620003af565b9250506060620004ac878288016200036b565b91505092959194509250565b6000620004c68383620004d2565b60208301905092915050565b620004dd8162000726565b82525050565b620004ee8162000726565b82525050565b60006200050182620006e1565b6200050d818562000704565b93506200051a83620006d1565b8060005b8381101562000551578151620005358882620004b8565b97506200054283620006f7565b9250506001810190506200051e565b5085935050505092915050565b60006200056b82620006ec565b62000577818562000715565b93506200058981856020860162000773565b62000594816200080e565b840191505092915050565b620005aa816200075a565b82525050565b6000602082019050620005c76000830184620004e3565b92915050565b6000604082019050620005e46000830185620004e3565b620005f36020830184620004e3565b9392505050565b60006020820190508181036000830152620006168184620004f4565b905092915050565b600060808201905081810360008301526200063a81876200055e565b90506200064b6020830186620004e3565b6200065a60408301856200059f565b620006696060830184620004e3565b95945050505050565b60006200067e62000691565b90506200068c8282620007a9565b919050565b6000604051905090565b600067ffffffffffffffff821115620006b957620006b8620007df565b5b620006c4826200080e565b9050602081019050919050565b6000819050602082019050919050565b600081519050919050565b600081519050919050565b6000602082019050919050565b600082825260208201905092915050565b600082825260208201905092915050565b600062000733826200073a565b9050919050565b600073ffffffffffffffffffffffffffffffffffffffff82169050919050565b6000819050919050565b82818337600083830152505050565b60005b838110156200079357808201518184015260208101905062000776565b83811115620007a3576000848401525b50505050565b620007b4826200080e565b810181811067ffffffffffffffff82111715620007d657620007d5620007df565b5b80604052505050565b7f4e487b7100000000000000000000000000000000000000000000000000000000600052604160045260246000fd5b6000601f19601f8301169050919050565b6200082a8162000726565b81146200083657600080fd5b50565b62000844816200075a565b81146200085057600080fd5b5056fe60806040523480156200001157600080fd5b50604051620014be380380620014be83398181016040528101906200003791906200023a565b83600090805190602001906200004f929190620000ea565b5082600160006101000a81548173ffffffffffffffffffffffffffffffffffffffff021916908373ffffffffffffffffffffffffffffffffffffffff1602179055508160038190555080600460006101000a81548173ffffffffffffffffffffffffffffffffffffffff021916908373ffffffffffffffffffffffffffffffffffffffff1602179055504260028190555050505050620004a1565b828054620000f89062000392565b90600052602060002090601f0160209004810192826200011c576000855562000168565b82601f106200013757805160ff191683800117855562000168565b8280016001018555821562000168579182015b82811115620001675782518255916020019190600101906200014a565b5b5090506200017791906200017b565b5090565b5b80821115620001965760008160009055506001016200017c565b5090565b6000620001b1620001ab84620002e8565b620002bf565b905082815260208101848484011115620001ca57600080fd5b620001d78482856200035c565b509392505050565b600081519050620001f0816200046d565b92915050565b600082601f8301126200020857600080fd5b81516200021a8482602086016200019a565b91505092915050565b600081519050620002348162000487565b92915050565b600080600080608085870312156200025157600080fd5b600085015167ffffffffffffffff8111156200026c57600080fd5b6200027a87828801620001f6565b94505060206200028d87828801620001df565b9350506040620002a08782880162000223565b9250506060620002b387828801620001df565b91505092959194509250565b6000620002cb620002de565b9050620002d98282620003c8565b919050565b6000604051905090565b600067ffffffffffffffff8211156200030657620003056200042d565b5b62000311826200045c565b9050602081019050919050565b60006200032b8262000332565b9050919050565b600073ffffffffffffffffffffffffffffffffffffffff82169050919050565b6000819050919050565b60005b838110156200037c5780820151818401526020810190506200035f565b838111156200038c576000848401525b50505050565b60006002820490506001821680620003ab57607f821691505b60208210811415620003c257620003c1620003fe565b5b50919050565b620003d3826200045c565b810181811067ffffffffffffffff82111715620003f557620003f46200042d565b5b80604052505050565b7f4e487b7100000000000000000000000000000000000000000000000000000000600052602260045260246000fd5b7f4e487b7100000000000000000000000000000000000000000000000000000000600052604160045260246000fd5b6000601f19601f8301169050919050565b62000478816200031e565b81146200048457600080fd5b50565b620004928162000352565b81146200049e57600080fd5b50565b61100d80620004b16000396000f3fe60806040526004361061008a5760003560e01c80638da5cb5b116100595780638da5cb5b146101f357806391f2ebb81461021e578063ad6c150b14610249578063e3fd246514610274578063f3fef3a31461029d57610158565b806306fdde031461015d5780633defb962146101885780633ffda9ab1461019f57806344004cc1146101ca57610158565b3661015857600160009054906101000a900473ffffffffffffffffffffffffffffffffffffffff1673ffffffffffffffffffffffffffffffffffffffff163373ffffffffffffffffffffffffffffffffffffffff161461011f576040517f08c379a000000000000000000000000000000000000000000000000000000000815260040161011690610ccf565b60405180910390fd5b7fa8142743f8f70a4c26f3691cf4ed59718381fb2f18070ec52be1f1022d8555573460405161014e9190610d0f565b60405180910390a1005b600080fd5b34801561016957600080fd5b506101726102c6565b60405161017f9190610c8d565b60405180910390f35b34801561019457600080fd5b5061019d610354565b005b3480156101ab57600080fd5b506101b46103ed565b6040516101c19190610d0f565b60405180910390f35b3480156101d657600080fd5b506101f160048036038101906101ec9190610a5d565b6103f3565b005b3480156101ff57600080fd5b5061020861069d565b6040516102159190610bcd565b60405180910390f35b34801561022a57600080fd5b506102336106c3565b6040516102409190610bcd565b60405180910390f35b34801561025557600080fd5b5061025e6106e9565b60405161026b9190610d0f565b60405180910390f35b34801561028057600080fd5b5061029b600480360381019061029691906109f8565b6106ef565b005b3480156102a957600080fd5b506102c460048036038101906102bf9190610a21565b6107c3565b005b600080546102d390610e5f565b80601f01602080910402602001604051908101604052809291908181526020018280546102ff90610e5f565b801561034c5780601f106103215761010080835404028352916020019161034c565b820191906000526020600020905b81548152906001019060200180831161032f57829003601f168201915b505050505081565b600160009054906101000a900473ffffffffffffffffffffffffffffffffffffffff1673ffffffffffffffffffffffffffffffffffffffff163373ffffffffffffffffffffffffffffffffffffffff16146103e4576040517f08c379a00000000000000000000000000000000000000000000000000000000081526004016103db90610ccf565b60405180910390fd5b42600281905550565b60035481565b600160009054906101000a900473ffffffffffffffffffffffffffffffffffffffff1673ffffffffffffffffffffffffffffffffffffffff163373ffffffffffffffffffffffffffffffffffffffff1614806104b75750600460009054906101000a900473ffffffffffffffffffffffffffffffffffffffff1673ffffffffffffffffffffffffffffffffffffffff163373ffffffffffffffffffffffffffffffffffffffff161480156104b657506003546002546104b29190610d46565b4210155b5b6104f6576040517f08c379a00000000000000000000000000000000000000000000000000000000081526004016104ed90610caf565b60405180910390fd5b600083905060008173ffffffffffffffffffffffffffffffffffffffff166370a08231306040518263ffffffff1660e01b81526004016105369190610bcd565b60206040518083038186803b15801561054e57600080fd5b505afa158015610562573d6000803e3d6000fd5b505050506040513d601f19601f820116820180604052508101906105869190610ad5565b9050828110156105cb576040517f08c379a00000000000000000000000000000000000000000000000000000000081526004016105c290610cef565b60405180910390fd5b8173ffffffffffffffffffffffffffffffffffffffff1663a9059cbb85856040518363ffffffff1660e01b8152600401610606929190610c64565b602060405180830381600087803b15801561062057600080fd5b505af1158015610634573d6000803e3d6000fd5b505050506040513d601f19601f820116820180604052508101906106589190610aac565b507f6b00f1c7883f053ba83e907fd1965b22fffe3c4111383e725f04638a566cdbfa8533868660405161068e9493929190610c1f565b60405180910390a15050505050565b600160009054906101000a900473ffffffffffffffffffffffffffffffffffffffff1681565b600460009054906101000a900473ffffffffffffffffffffffffffffffffffffffff1681565b60025481565b600160009054906101000a900473ffffffffffffffffffffffffffffffffffffffff1673ffffffffffffffffffffffffffffffffffffffff163373ffffffffffffffffffffffffffffffffffffffff161461077f576040517f08c379a000000000000000000000000000000000000000000000000000000000815260040161077690610ccf565b60405180910390fd5b80600460006101000a81548173ffffffffffffffffffffffffffffffffffffffff021916908373ffffffffffffffffffffffffffffffffffffffff16021790555050565b600160009054906101000a900473ffffffffffffffffffffffffffffffffffffffff1673ffffffffffffffffffffffffffffffffffffffff163373ffffffffffffffffffffffffffffffffffffffff1614806108875750600460009054906101000a900473ffffffffffffffffffffffffffffffffffffffff1673ffffffffffffffffffffffffffffffffffffffff163373ffffffffffffffffffffffffffffffffffffffff1614801561088657506003546002546108829190610d46565b4210155b5b6108c6576040517f08c379a00000000000000000000000000000000000000000000000000000000081526004016108bd90610caf565b60405180910390fd5b80471015610909576040517f08c379a000000000000000000000000000000000000000000000000000000000815260040161090090610cef565b60405180910390fd5b8173ffffffffffffffffffffffffffffffffffffffff166108fc829081150290604051600060405180830381858888f1935050505015801561094f573d6000803e3d6000fd5b507f0472be967f9a37138dfea1875af44784cafb79f92044ab33d7d6958eddd9ca6c33838360405161098393929190610be8565b60405180910390a15050565b60008135905061099e81610f7b565b92915050565b6000813590506109b381610f92565b92915050565b6000815190506109c881610fa9565b92915050565b6000813590506109dd81610fc0565b92915050565b6000815190506109f281610fc0565b92915050565b600060208284031215610a0a57600080fd5b6000610a188482850161098f565b91505092915050565b60008060408385031215610a3457600080fd5b6000610a42858286016109a4565b9250506020610a53858286016109ce565b9150509250929050565b600080600060608486031215610a7257600080fd5b6000610a808682870161098f565b9350506020610a918682870161098f565b9250506040610aa2868287016109ce565b9150509250925092565b600060208284031215610abe57600080fd5b6000610acc848285016109b9565b91505092915050565b600060208284031215610ae757600080fd5b6000610af5848285016109e3565b91505092915050565b610b0781610df6565b82525050565b610b1681610d9c565b82525050565b6000610b2782610d2a565b610b318185610d35565b9350610b41818560208601610e2c565b610b4a81610eef565b840191505092915050565b6000610b62600c83610d35565b9150610b6d82610f00565b602082019050919050565b6000610b85601583610d35565b9150610b9082610f29565b602082019050919050565b6000610ba8601583610d35565b9150610bb382610f52565b602082019050919050565b610bc781610dec565b82525050565b6000602082019050610be26000830184610b0d565b92915050565b6000606082019050610bfd6000830186610b0d565b610c0a6020830185610afe565b610c176040830184610bbe565b949350505050565b6000608082019050610c346000830187610b0d565b610c416020830186610b0d565b610c4e6040830185610b0d565b610c5b6060830184610bbe565b95945050505050565b6000604082019050610c796000830185610b0d565b610c866020830184610bbe565b9392505050565b60006020820190508181036000830152610ca78184610b1c565b905092915050565b60006020820190508181036000830152610cc881610b55565b9050919050565b60006020820190508181036000830152610ce881610b78565b9050919050565b60006020820190508181036000830152610d0881610b9b565b9050919050565b6000602082019050610d246000830184610bbe565b92915050565b600081519050919050565b600082825260208201905092915050565b6000610d5182610dec565b9150610d5c83610dec565b9250827fffffffffffffffffffffffffffffffffffffffffffffffffffffffffffffffff03821115610d9157610d90610e91565b5b828201905092915050565b6000610da782610dcc565b9050919050565b6000610db982610dcc565b9050919050565b60008115159050919050565b600073ffffffffffffffffffffffffffffffffffffffff82169050919050565b6000819050919050565b6000610e0182610e08565b9050919050565b6000610e1382610e1a565b9050919050565b6000610e2582610dcc565b9050919050565b60005b83811015610e4a578082015181840152602081019050610e2f565b83811115610e59576000848401525b50505050565b60006002820490506001821680610e7757607f821691505b60208210811415610e8b57610e8a610ec0565b5b50919050565b7f4e487b7100000000000000000000000000000000000000000000000000000000600052601160045260246000fd5b7f4e487b7100000000000000000000000000000000000000000000000000000000600052602260045260246000fd5b6000601f19601f8301169050919050565b7f4e6f7420416c6c6f776564210000000000000000000000000000000000000000600082015250565b7f557365722073686f756c64206265206f776e65722e0000000000000000000000600082015250565b7f496e73756666696369656e742042616c616e6365210000000000000000000000600082015250565b610f8481610d9c565b8114610f8f57600080fd5b50565b610f9b81610dae565b8114610fa657600080fd5b50565b610fb281610dc0565b8114610fbd57600080fd5b50565b610fc981610dec565b8114610fd457600080fd5b5056fea264697066735822122085908c8f3c2de26f2c4572482e41cc9606c56f1fec37bb80ca44d04c03dd650f64736f6c63430008020033a2646970667358221220933b74923a7e93c831739b2a77c30385a682d199bdba9c821027b0a0482a4c4c64736f6c63430008020033",
  "immutableReferences": {},
  "source": "// SPDX-License-Identifier: MIT\r\npragma solidity ^0.8.2;\r\nimport \"./Legacy.sol\";\r\n\r\ncontract LegacyFactory {\r\n    mapping(address => address[]) public legacies;\r\n\r\n    // get all Legacies associated with given address\r\n    function getLegacy(address _owner) public view returns (address[] memory) {\r\n        return legacies[_owner];\r\n    }\r\n\r\n    event NewLegacy(address legacy, address owner);\r\n\r\n    // create new legacy\r\n    function newLegacy(\r\n        string memory _name,\r\n        address _owner,\r\n        uint256 _lockingTime,\r\n        address _heir\r\n    ) external {\r\n        // create new legacy\r\n        Legacy legacy = new Legacy(_name, _owner, _lockingTime, _heir);\r\n\r\n        // Add mapping\r\n        legacies[_owner].push(address(legacy));\r\n\r\n        // emit new legacy event\r\n        emit NewLegacy(address(legacy), _owner);\r\n    }\r\n}\r\n",
  "sourcePath": "C:\\Users\\aybar\\Desktop\\SmartContract\\blokchainWill\\contracts\\LegacyFactory.sol",
  "compiler": {
    "name": "solc",
    "version": "0.8.2+commit.661d1103.Emscripten.clang"
  },
  "schemaVersion": "3.4.14",
  "updatedAt": "2023-06-13T20:58:10.198Z",
  "devdoc": {
    "kind": "dev",
    "methods": {},
    "version": 1
  },
  "userdoc": {
    "kind": "user",
    "methods": {},
    "version": 1
  }
}