{
  "contractName": "Legacy",
  "abi": [
    {
      "inputs": [
        {
          "internalType": "string",
          "name": "_name",
          "type": "string"
        },
        {
          "internalType": "address",
          "name": "_owner",
          "type": "address"
        },
        {
          "internalType": "uint256",
          "name": "_lockingTime",
          "type": "uint256"
        },
        {
          "internalType": "address",
          "name": "_heir",
          "type": "address"
        }
      ],
      "stateMutability": "nonpayable",
      "type": "constructor"
    },
    {
      "anonymous": false,
      "inputs": [
        {
          "indexed": false,
          "internalType": "uint256",
          "name": "amount",
          "type": "uint256"
        }
      ],
      "name": "Received",
      "type": "event"
    },
    {
      "anonymous": false,
      "inputs": [
        {
          "indexed": false,
          "internalType": "address",
          "name": "by",
          "type": "address"
        },
        {
          "indexed": false,
          "internalType": "address",
          "name": "to",
          "type": "address"
        },
        {
          "indexed": false,
          "internalType": "uint256",
          "name": "amount",
          "type": "uint256"
        }
      ],
      "name": "Withdrew",
      "type": "event"
    },
    {
      "anonymous": false,
      "inputs": [
        {
          "indexed": false,
          "internalType": "address",
          "name": "token",
          "type": "address"
        },
        {
          "indexed": false,
          "internalType": "address",
          "name": "by",
          "type": "address"
        },
        {
          "indexed": false,
          "internalType": "address",
          "name": "to",
          "type": "address"
        },
        {
          "indexed": false,
          "internalType": "uint256",
          "name": "amount",
          "type": "uint256"
        }
      ],
      "name": "WithdrewERC20",
      "type": "event"
    },
    {
      "inputs": [],
      "name": "heir",
      "outputs": [
        {
          "internalType": "address",
          "name": "",
          "type": "address"
        }
      ],
      "stateMutability": "view",
      "type": "function"
    },
    {
      "inputs": [],
      "name": "lastOwnerActive",
      "outputs": [
        {
          "internalType": "uint256",
          "name": "",
          "type": "uint256"
        }
      ],
      "stateMutability": "view",
      "type": "function"
    },
    {
      "inputs": [],
      "name": "lockingTime",
      "outputs": [
        {
          "internalType": "uint256",
          "name": "",
          "type": "uint256"
        }
      ],
      "stateMutability": "view",
      "type": "function"
    },
    {
      "inputs": [],
      "name": "name",
      "outputs": [
        {
          "internalType": "string",
          "name": "",
          "type": "string"
        }
      ],
      "stateMutability": "view",
      "type": "function"
    },
    {
      "inputs": [],
      "name": "owner",
      "outputs": [
        {
          "internalType": "address",
          "name": "",
          "type": "address"
        }
      ],
      "stateMutability": "view",
      "type": "function"
    },
    {
      "stateMutability": "payable",
      "type": "receive"
    },
    {
      "inputs": [
        {
          "internalType": "address",
          "name": "_tokenAddress",
          "type": "address"
        },
        {
          "internalType": "address",
          "name": "_to",
          "type": "address"
        },
        {
          "internalType": "uint256",
          "name": "_amount",
          "type": "uint256"
        }
      ],
      "name": "withdrawERC20",
      "outputs": [],
      "stateMutability": "nonpayable",
      "type": "function"
    },
    {
      "inputs": [
        {
          "internalType": "address payable",
          "name": "_to",
          "type": "address"
        },
        {
          "internalType": "uint256",
          "name": "_amount",
          "type": "uint256"
        }
      ],
      "name": "withdraw",
      "outputs": [],
      "stateMutability": "nonpayable",
      "type": "function"
    },
    {
      "inputs": [],
      "name": "heartbeat",
      "outputs": [],
      "stateMutability": "nonpayable",
      "type": "function"
    },
    {
      "inputs": [
        {
          "internalType": "address",
          "name": "_newHeir",
          "type": "address"
        }
      ],
      "name": "changeHeir",
      "outputs": [],
      "stateMutability": "nonpayable",
      "type": "function"
    }
  ],
  "bytecode": "0x60806040523480156200001157600080fd5b50604051620014be380380620014be83398181016040528101906200003791906200023a565b83600090805190602001906200004f929190620000ea565b5082600160006101000a81548173ffffffffffffffffffffffffffffffffffffffff021916908373ffffffffffffffffffffffffffffffffffffffff1602179055508160038190555080600460006101000a81548173ffffffffffffffffffffffffffffffffffffffff021916908373ffffffffffffffffffffffffffffffffffffffff1602179055504260028190555050505050620004a1565b828054620000f89062000392565b90600052602060002090601f0160209004810192826200011c576000855562000168565b82601f106200013757805160ff191683800117855562000168565b8280016001018555821562000168579182015b82811115620001675782518255916020019190600101906200014a565b5b5090506200017791906200017b565b5090565b5b80821115620001965760008160009055506001016200017c565b5090565b6000620001b1620001ab84620002e8565b620002bf565b905082815260208101848484011115620001ca57600080fd5b620001d78482856200035c565b509392505050565b600081519050620001f0816200046d565b92915050565b600082601f8301126200020857600080fd5b81516200021a8482602086016200019a565b91505092915050565b600081519050620002348162000487565b92915050565b600080600080608085870312156200025157600080fd5b600085015167ffffffffffffffff8111156200026c57600080fd5b6200027a87828801620001f6565b94505060206200028d87828801620001df565b9350506040620002a08782880162000223565b9250506060620002b387828801620001df565b91505092959194509250565b6000620002cb620002de565b9050620002d98282620003c8565b919050565b6000604051905090565b600067ffffffffffffffff8211156200030657620003056200042d565b5b62000311826200045c565b9050602081019050919050565b60006200032b8262000332565b9050919050565b600073ffffffffffffffffffffffffffffffffffffffff82169050919050565b6000819050919050565b60005b838110156200037c5780820151818401526020810190506200035f565b838111156200038c576000848401525b50505050565b60006002820490506001821680620003ab57607f821691505b60208210811415620003c257620003c1620003fe565b5b50919050565b620003d3826200045c565b810181811067ffffffffffffffff82111715620003f557620003f46200042d565b5b80604052505050565b7f4e487b7100000000000000000000000000000000000000000000000000000000600052602260045260246000fd5b7f4e487b7100000000000000000000000000000000000000000000000000000000600052604160045260246000fd5b6000601f19601f8301169050919050565b62000478816200031e565b81146200048457600080fd5b50565b620004928162000352565b81146200049e57600080fd5b50565b61100d80620004b16000396000f3fe60806040526004361061008a5760003560e01c80638da5cb5b116100595780638da5cb5b146101f357806391f2ebb81461021e578063ad6c150b14610249578063e3fd246514610274578063f3fef3a31461029d57610158565b806306fdde031461015d5780633defb962146101885780633ffda9ab1461019f57806344004cc1146101ca57610158565b3661015857600160009054906101000a900473ffffffffffffffffffffffffffffffffffffffff1673ffffffffffffffffffffffffffffffffffffffff163373ffffffffffffffffffffffffffffffffffffffff161461011f576040517f08c379a000000000000000000000000000000000000000000000000000000000815260040161011690610ccf565b60405180910390fd5b7fa8142743f8f70a4c26f3691cf4ed59718381fb2f18070ec52be1f1022d8555573460405161014e9190610d0f565b60405180910390a1005b600080fd5b34801561016957600080fd5b506101726102c6565b60405161017f9190610c8d565b60405180910390f35b34801561019457600080fd5b5061019d610354565b005b3480156101ab57600080fd5b506101b46103ed565b6040516101c19190610d0f565b60405180910390f35b3480156101d657600080fd5b506101f160048036038101906101ec9190610a5d565b6103f3565b005b3480156101ff57600080fd5b5061020861069d565b6040516102159190610bcd565b60405180910390f35b34801561022a57600080fd5b506102336106c3565b6040516102409190610bcd565b60405180910390f35b34801561025557600080fd5b5061025e6106e9565b60405161026b9190610d0f565b60405180910390f35b34801561028057600080fd5b5061029b600480360381019061029691906109f8565b6106ef565b005b3480156102a957600080fd5b506102c460048036038101906102bf9190610a21565b6107c3565b005b600080546102d390610e5f565b80601f01602080910402602001604051908101604052809291908181526020018280546102ff90610e5f565b801561034c5780601f106103215761010080835404028352916020019161034c565b820191906000526020600020905b81548152906001019060200180831161032f57829003601f168201915b505050505081565b600160009054906101000a900473ffffffffffffffffffffffffffffffffffffffff1673ffffffffffffffffffffffffffffffffffffffff163373ffffffffffffffffffffffffffffffffffffffff16146103e4576040517f08c379a00000000000000000000000000000000000000000000000000000000081526004016103db90610ccf565b60405180910390fd5b42600281905550565b60035481565b600160009054906101000a900473ffffffffffffffffffffffffffffffffffffffff1673ffffffffffffffffffffffffffffffffffffffff163373ffffffffffffffffffffffffffffffffffffffff1614806104b75750600460009054906101000a900473ffffffffffffffffffffffffffffffffffffffff1673ffffffffffffffffffffffffffffffffffffffff163373ffffffffffffffffffffffffffffffffffffffff161480156104b657506003546002546104b29190610d46565b4210155b5b6104f6576040517f08c379a00000000000000000000000000000000000000000000000000000000081526004016104ed90610caf565b60405180910390fd5b600083905060008173ffffffffffffffffffffffffffffffffffffffff166370a08231306040518263ffffffff1660e01b81526004016105369190610bcd565b60206040518083038186803b15801561054e57600080fd5b505afa158015610562573d6000803e3d6000fd5b505050506040513d601f19601f820116820180604052508101906105869190610ad5565b9050828110156105cb576040517f08c379a00000000000000000000000000000000000000000000000000000000081526004016105c290610cef565b60405180910390fd5b8173ffffffffffffffffffffffffffffffffffffffff1663a9059cbb85856040518363ffffffff1660e01b8152600401610606929190610c64565b602060405180830381600087803b15801561062057600080fd5b505af1158015610634573d6000803e3d6000fd5b505050506040513d601f19601f820116820180604052508101906106589190610aac565b507f6b00f1c7883f053ba83e907fd1965b22fffe3c4111383e725f04638a566cdbfa8533868660405161068e9493929190610c1f565b60405180910390a15050505050565b600160009054906101000a900473ffffffffffffffffffffffffffffffffffffffff1681565b600460009054906101000a900473ffffffffffffffffffffffffffffffffffffffff1681565b60025481565b600160009054906101000a900473ffffffffffffffffffffffffffffffffffffffff1673ffffffffffffffffffffffffffffffffffffffff163373ffffffffffffffffffffffffffffffffffffffff161461077f576040517f08c379a000000000000000000000000000000000000000000000000000000000815260040161077690610ccf565b60405180910390fd5b80600460006101000a81548173ffffffffffffffffffffffffffffffffffffffff021916908373ffffffffffffffffffffffffffffffffffffffff16021790555050565b600160009054906101000a900473ffffffffffffffffffffffffffffffffffffffff1673ffffffffffffffffffffffffffffffffffffffff163373ffffffffffffffffffffffffffffffffffffffff1614806108875750600460009054906101000a900473ffffffffffffffffffffffffffffffffffffffff1673ffffffffffffffffffffffffffffffffffffffff163373ffffffffffffffffffffffffffffffffffffffff1614801561088657506003546002546108829190610d46565b4210155b5b6108c6576040517f08c379a00000000000000000000000000000000000000000000000000000000081526004016108bd90610caf565b60405180910390fd5b80471015610909576040517f08c379a000000000000000000000000000000000000000000000000000000000815260040161090090610cef565b60405180910390fd5b8173ffffffffffffffffffffffffffffffffffffffff166108fc829081150290604051600060405180830381858888f1935050505015801561094f573d6000803e3d6000fd5b507f0472be967f9a37138dfea1875af44784cafb79f92044ab33d7d6958eddd9ca6c33838360405161098393929190610be8565b60405180910390a15050565b60008135905061099e81610f7b565b92915050565b6000813590506109b381610f92565b92915050565b6000815190506109c881610fa9565b92915050565b6000813590506109dd81610fc0565b92915050565b6000815190506109f281610fc0565b92915050565b600060208284031215610a0a57600080fd5b6000610a188482850161098f565b91505092915050565b60008060408385031215610a3457600080fd5b6000610a42858286016109a4565b9250506020610a53858286016109ce565b9150509250929050565b600080600060608486031215610a7257600080fd5b6000610a808682870161098f565b9350506020610a918682870161098f565b9250506040610aa2868287016109ce565b9150509250925092565b600060208284031215610abe57600080fd5b6000610acc848285016109b9565b91505092915050565b600060208284031215610ae757600080fd5b6000610af5848285016109e3565b91505092915050565b610b0781610df6565b82525050565b610b1681610d9c565b82525050565b6000610b2782610d2a565b610b318185610d35565b9350610b41818560208601610e2c565b610b4a81610eef565b840191505092915050565b6000610b62600c83610d35565b9150610b6d82610f00565b602082019050919050565b6000610b85601583610d35565b9150610b9082610f29565b602082019050919050565b6000610ba8601583610d35565b9150610bb382610f52565b602082019050919050565b610bc781610dec565b82525050565b6000602082019050610be26000830184610b0d565b92915050565b6000606082019050610bfd6000830186610b0d565b610c0a6020830185610afe565b610c176040830184610bbe565b949350505050565b6000608082019050610c346000830187610b0d565b610c416020830186610b0d565b610c4e6040830185610b0d565b610c5b6060830184610bbe565b95945050505050565b6000604082019050610c796000830185610b0d565b610c866020830184610bbe565b9392505050565b60006020820190508181036000830152610ca78184610b1c565b905092915050565b60006020820190508181036000830152610cc881610b55565b9050919050565b60006020820190508181036000830152610ce881610b78565b9050919050565b60006020820190508181036000830152610d0881610b9b565b9050919050565b6000602082019050610d246000830184610bbe565b92915050565b600081519050919050565b600082825260208201905092915050565b6000610d5182610dec565b9150610d5c83610dec565b9250827fffffffffffffffffffffffffffffffffffffffffffffffffffffffffffffffff03821115610d9157610d90610e91565b5b828201905092915050565b6000610da782610dcc565b9050919050565b6000610db982610dcc565b9050919050565b60008115159050919050565b600073ffffffffffffffffffffffffffffffffffffffff82169050919050565b6000819050919050565b6000610e0182610e08565b9050919050565b6000610e1382610e1a565b9050919050565b6000610e2582610dcc565b9050919050565b60005b83811015610e4a578082015181840152602081019050610e2f565b83811115610e59576000848401525b50505050565b60006002820490506001821680610e7757607f821691505b60208210811415610e8b57610e8a610ec0565b5b50919050565b7f4e487b7100000000000000000000000000000000000000000000000000000000600052601160045260246000fd5b7f4e487b7100000000000000000000000000000000000000000000000000000000600052602260045260246000fd5b6000601f19601f8301169050919050565b7f4e6f7420416c6c6f776564210000000000000000000000000000000000000000600082015250565b7f557365722073686f756c64206265206f776e65722e0000000000000000000000600082015250565b7f496e73756666696369656e742042616c616e6365210000000000000000000000600082015250565b610f8481610d9c565b8114610f8f57600080fd5b50565b610f9b81610dae565b8114610fa657600080fd5b50565b610fb281610dc0565b8114610fbd57600080fd5b50565b610fc981610dec565b8114610fd457600080fd5b5056fea264697066735822122085908c8f3c2de26f2c4572482e41cc9606c56f1fec37bb80ca44d04c03dd650f64736f6c63430008020033",
  "immutableReferences": {},
  "source": "// SPDX-License-Identifier: MIT\r\npragma solidity ^0.8.2;\r\nimport \"../node_modules/@openzeppelin/contracts/token/ERC20/extensions/IERC20Metadata.sol\";\r\n\r\ncontract Legacy {\r\n    // Name assigned to heir contract\r\n    string public name;\r\n\r\n    // address of the owner\r\n    address public owner;\r\n\r\n    // time at which owner was last active\r\n    uint256 public lastOwnerActive;\r\n\r\n    // amount of time after inactivity of owner which heir can claim the assets\r\n    uint256 public lockingTime;\r\n\r\n    // address of the heir\r\n    address public heir;\r\n\r\n    constructor(\r\n        string memory _name,\r\n        address _owner,\r\n        uint256 _lockingTime,\r\n        address _heir\r\n    ) {\r\n        name = _name;\r\n        owner = _owner;\r\n        lockingTime = _lockingTime;\r\n        heir = _heir;\r\n\r\n        // set last owner active time to current time\r\n        lastOwnerActive = block.timestamp;\r\n    }\r\n\r\n    modifier isOwner() {\r\n        require(msg.sender == owner, \"User should be owner.\");\r\n        _;\r\n    }\r\n\r\n    modifier isheir() {\r\n        require(msg.sender == heir, \"User should be heir.\");\r\n        _;\r\n    }\r\n\r\n    event WithdrewERC20(address token, address by, address to, uint256 amount);\r\n    event Withdrew(address by, address to, uint256 amount);\r\n    event Received(uint256 amount);\r\n\r\n    modifier isAllowed() {\r\n        require(\r\n            msg.sender == owner ||\r\n                (msg.sender == heir &&\r\n                    block.timestamp >= (lastOwnerActive + lockingTime)),\r\n            \"Not Allowed!\"\r\n        );\r\n        _;\r\n    }\r\n\r\n    function withdrawERC20(\r\n        address _tokenAddress,\r\n        address _to,\r\n        uint256 _amount\r\n    ) external isAllowed {\r\n        IERC20Metadata token = IERC20Metadata(_tokenAddress);\r\n        uint256 balance = token.balanceOf(address(this));\r\n        require(balance >= _amount, \"Insufficient Balance!\");\r\n        token.transfer(_to, _amount);\r\n        emit WithdrewERC20(_tokenAddress, msg.sender, _to, _amount);\r\n    }\r\n\r\n    function withdraw(address payable _to, uint256 _amount) external isAllowed {\r\n        // check of balance is less than required amount\r\n        require(address(this).balance >= _amount, \"Insufficient Balance!\");\r\n        _to.transfer(_amount);\r\n\r\n        // emit event\r\n        emit Withdrew(msg.sender, _to, _amount);\r\n    }\r\n\r\n    function heartbeat() external isOwner {\r\n        // update last owner active timestamp\r\n        lastOwnerActive = block.timestamp;\r\n    }\r\n    //Circumstances may change, and the owner might want to assign a new heir.\r\n    function changeHeir(address _newHeir) external isOwner {\r\n        heir = _newHeir;\r\n    }\r\n\r\n    receive() external payable {\r\n        // check if sender is owner of the contract\r\n        require(msg.sender == owner, \"User should be owner.\");\r\n\r\n        emit Received(msg.value);\r\n    }\r\n}",
  "sourcePath": "C:\\Users\\aybar\\Desktop\\SmartContract\\blokchainWill\\contracts\\Legacy.sol",
  "compiler": {
    "name": "solc",
    "version": "0.8.2+commit.661d1103.Emscripten.clang"
  },
  "schemaVersion": "3.4.14",
  "updatedAt": "2023-06-13T20:58:10.192Z",
  "devdoc": {
    "kind": "dev",
    "methods": {},
    "version": 1
  },
  "userdoc": {
    "kind": "user",
    "methods": {},
    "version": 1
  }
}